S011000074657374696E6743572E737265637B
S11300000C9434000C9451000C94B5020C945100DF
S11300100C9451000C9451000C9451000C94510018
S11300200C9451000C9451000C9451000C94510008
S11300300C9451000C9451000C9451000C945100F8
S11300400C9451000C9451000C9451000C945100E8
S11300500C9451000C9451000C9451000C945100D8
S11300600C9451000C94510011241FBECFEFD8E022
S1130070DEBFCDBF11E0A0E0B1E0ECEEF7E002C0DE
S113008005900D92A237B107D9F721E0A2E7B1E0BC
S113009001C01D92A437B207E1F70E94C3030C9478
S11300A0F4030C940000672B09F0A1C08A30910579
S11300B021F485B18E7F85B908958B30910521F4A3
S11300C085B18D7F85B908958C30910521F485B172
S11300D08B7F85B908958D30910521F485B1877F93
S11300E085B908958E30910521F485B18F7E85B947
S11300F008958F30910521F485B18F7D85B90895D8
S11301008031910521F485B18F7B85B908958131C2
S1130110910521F485B18F7785B9089584319105CE
S113012021F488B18E7F88B908958531910521F431
S113013088B18D7F88B908958631910521F488B1FD
S11301408B7F88B908958731910521F488B1877F21
S113015088B908958831910521F488B18F7E88B9D2
S113016008958931910521F488B18F7D88B9089566
S11301708A31910521F488B18F7B88B908958E3135
S1130180910521F48BB18E7F8BB908958F31910540
S113019021F48BB18D7F8BB908958032910521F4C0
S11301A08BB18B7F8BB908958132910521F48BB18A
S11301B0877F8BB908958232910521F48BB18F7EAC
S11301C08BB908958332910521F48BB18F7D8BB95E
S11301D008958432910521F48BB18F7B8BB90895F6
S11301E0859709F0A3C08BB18F778BB908958A30B6
S11301F0910521F485B1816085B908958B3091050D
S113020021F485B1826085B908958C30910521F47B
S113021085B1846085B908958D30910521F485B147
S1130220886085B908958E30910521F485B1806187
S113023085B908958F30910521F485B1806285B91F
S113024008958031910521F485B1806485B90895BC
S11302508131910521F485B1806885B9089584318F
S1130260910521F488B1816088B90895853191059B
S113027021F488B1826088B908958631910521F40A
S113028088B1846088B908958731910521F488B1D3
S1130290886088B908958831910521F488B1806116
S11302A088B908958931910521F488B1806288B9AB
S11302B008958A31910521F488B1806488B908953C
S11302C08E31910521F48BB181608BB908958F3102
S11302D0910521F48BB182608BB908958032910528
S11302E021F48BB184608BB908958132910521F496
S11302F08BB188608BB908958232910521F48BB15A
S113030080618BB908958332910521F48BB18062A9
S11303108BB908958432910521F48BB180648BB933
S11303200895859719F48BB180688BB90895CF939C
S1130330C82F80FF07C061E070E082E290E00E9475
S1130340530006C060E070E082E290E00E94530037
S1130350C1FF07C061E070E083E290E00E945300B7
S113036006C060E070E083E290E00E945300C2FFA8
S113037007C061E070E084E290E00E94530006C090
S113038060E070E084E290E00E945300C3FF07C085
S113039061E070E085E290E00E94530006C060E0F6
S11303A070E085E290E00E945300CF910895CF93CE
S11303B0C82F60E070E08EE090E00E9453008C2F24
S11303C00E94970161E070E08FE090E00E9453008A
S11303D08FE99FE00197F1F700C0000060E070E052
S11303E08FE090E00E9453008FE99FE00197F1F7BE
S11303F000C00000CF91089580E00E94D70181E001
S11304000E94D7010895CF93813061F480E8860F6C
S1130410C62FCF7082958F700E94D7018C2F0E94B7
S1130420D7010DC0823059F480EC860FC62FCF70EF
S113043082958F700E94D7018C2F0E94D701CF9193
S1130440089580E00E9497012FEF89EF90E02150FA
S113045080409040E1F700C0000083E00E94D70193
S11304608FE19EE40197F1F700C0000083E00E9451
S1130470D7018FED9BEA0197F1F700C0000083E0FC
S11304800E94D70182E00E94D70182E00E94D70136
S113049088E00E94D70180E00E94D7018CE00E948E
S11304A0D70180E00E94D70186E00E94D701089519
S11304B0CF93DF93D82FDF70C82FC07F61E070E047
S11304C08EE090E00E9453008C2F82958F700E94E2
S11304D0970161E070E08FE090E00E9453008FE9A3
S11304E09FE00197F1F700C0000060E070E08FE04A
S11304F090E00E9453008FE99FE00197F1F700C05C
S113050000008D2F0E94970161E070E08FE090E081
S11305100E9453008FE99FE00197F1F700C00000AB
S113052060E070E08FE090E00E9453008FE99FE06C
S11305300197F1F700C00000DF91CF9108950F9368
S11305401F93CF93DF938C01C0E0D0E003C00E94DF
S113055058022196F801EC0FFD1F80818111F7CF1D
S1130560DF91CF911F910F9108951F920F920FB6B3
S11305700F9211248F9380917301811103C081E044
S1130580809373018F910F900FBE0F901F90189559
S11305909093890080938800E0E8F0E08081886C83
S11305A08083E1E8F0E0808185608083B19BFECFA9
S11305B0109280001092810082E086BB0895CF9350
S11305C0DF93EC016130710571F40E94FC0160E07D
S11305D081E00E940302CE010E949F0285E89EE111
S11305E00E94C8020BC060E082E00E940302CE01B8
S11305F00E949F0285E89EE10E94C802DF91CF918C
S113060008958FEF87BD84B5826C84BD85B5856000
S113061085BDA99BFECF14BC15BC82E085BB0895A3
S11306200F931F93CF93DF93E0E8F0E020812268DB
S11306302083E1E8F0E020812A61208320E43CE982
S11306403093870020938600803D974099F008EE10
S113065013E026C01093890000938800C0E0D0E026
S113066003C00E9401032196C230D105D4F309517D
S1130670110902C008E813E1083E83E0180754F7A3
S113068013C01093890000938800C0E0D0E003C039
S11306900E9401032196C230D105D4F3075E1F4F97
S11306A0093823E112076CF3DF91CF911F910F9169
S11306B00895CF93DF9361E070E080E091E00E94C1
S11306C0DF0280EA9FE00E94100361E070E08DE0A9
S11306D091E00E94DF02C0E0D0E005C084E294EF24
S11306E00E94C8022196C230D105C4F3109273014E
S11306F081E080937201DF91CF91089561E070E011
S113070087E191E00E94DF0280ED97E00E941003F0
S113071061E070E084E291E00E94DF0210927201D5
S113072008951092C50087E68093C40088E1809301
S1130730C1008EE08093C20008958091C000882398
S11307401CF080E391E008958091C60008950E9412
S11307509D038F3459F461E070E087E391E00E94D7
S1130760DF0280EA9FE00E9410030895833451F46D
S113077061E070E084E491E00E94DF0280ED97E0A4
S11307800E94100308958AB1806F8AB984B182638C
S113079084B90E9491030E94210261E070E082E525
S11307A091E00E94DF0262E070E081E691E00E9445
S11307B0DF020E94FC018CE08093690082E08DBB23
S11307C0789485E89EE10E94C8028091730181308B
S11307D011F40E94590380917201813011F40E9436
S10F07E07E030E94A703F1CFF894FFCF22
S11307EC4F70656E696E6720446F6F7200446F6F53
S11307FC72204F70656E00436C6F73696E67204492
S113080C6F6F7200446F6F7220436C6F736564007A
S113081C4E4F20434F4D005043204F70656E204483
S113082C6F6F7200504320436C6F736520446F6F7D
S113083C72004175746F6D6174696320446F6F72DB
S113084C002020202050726F6A65637420202020C1
S105085C200076
S9030000FC
